:100000000C945A000C946C000C946C000C946C00D2
:100010000C946C000C946C000C946C000C946C00B0
:100020000C946C000C946C000C946C000C946C00A0
:100030000C946C000C946C000C946C000C946C0090
:100040000C946C000C946C000C946C000C946C0080
:100050000C946C000C946C000C946C000C946C0070
:100060000C946C000C946C008609AE03C803EF037B
:100070004A0470049A04CA04DB04010527056205DA
:100080009D05D80520066806B006EB0626076E0714
:10009000B607EB07200847089B08B0087B088F08C5
:1000A0009808C708D008E608FF081809410962093E
:1000B00077097D0911241FBECFEFD8E0DEBFCDBF89
:1000C00025E0A0E0B1E001C01D92A73DB207E1F735
:1000D0000E94610C0C9425140C940000CF93DF93C4
:1000E00000D000D000D0CDB7DEB79A8389834B8390
:1000F0005C836D837E832B813C8181E090E002C034
:10010000880F991F2A95E2F79C0189819A818223A1
:10011000932321E0892B09F420E0822F26960FB645
:10012000F894DEBF0FBECDBFDF91CF910895AF929F
:10013000BF92CF92DF92EF92FF920F931F93CF93D4
:10014000DF93CDB7DEB764970FB6F894DEBF0FBE6E
:10015000CDBF9A8789874B875C876D877E870F879E
:10016000188B298B3A8BFC8AEB8A19821A821B82A4
:100170001C821D821E821F8218868B899C89FC012D
:100180008081282F207E8B899C89FC012083898592
:100190009A858F30910509F445C08031910530F47E
:1001A0008D30910559F00E9719F10CC182319105EE
:1001B00009F452C0439709F49BC004C12B853C85C8
:1001C0004D855E858F859889A989BA89822B932B65
:1001D000A42BB52B9C01AD0160E070E0CB0129831D
:1001E0003A834B835C836D837E838F839887EAC0D9
:1001F0002B853C854D855E858F859889A989BA892F
:1002000082239323A423B5239C01AD0160E070E019
:10021000CB0129833A834B835C836D837E838F83F9
:100220009887D0C02B853C854D855E858F859889C4
:10023000A989BA8982279327A427B5279C01AD01F4
:1002400060E070E0CB0129833A834B835C836D834C
:100250007E838F839887B6C02B853C854D855E85D0
:100260008F859889A989BA89820F931FA41FB51F0A
:100270009C01AD0160E070E0CB0129833A834B83A0
:100280005C836D837E838F8398878B859C854FE10C
:1002900050E060E070E00E946E00182F8F85988912
:1002A0004FE150E060E070E00E946E00181709F026
:1002B00086C089819A814FE150E060E070E00E9441
:1002C0006E00182F8B859C854FE150E060E070E058
:1002D0000E946E00181709F472C08B899C89FC017A
:1002E0008081282F22608B899C89FC01208367C034
:1002F0006B857C858D859E850E944A136B017C01F0
:100300006F85788989899A890E944A13DC01CB011B
:100310009C01AD0160E070E080E89FE40E94A112C2
:10032000DC01CB019C01AD01C701B6010E94A21204
:10033000DC01CB01BC01CD010E941313A22EB32E10
:10034000C42ED52EE62EF72E082F192FA982BA8299
:10035000CB82DC82ED82FE820F8318878B859C85A1
:100360004FE150E060E070E00E946E00182F8F8532
:1003700098894FE150E060E070E00E946E0018172D
:1003800001F589819A814FE150E060E070E00E94C0
:100390006E00182F8B859C854FE150E060E070E087
:1003A0000E946E00181769F08B899C89FC0180817E
:1003B000282F22608B899C89FC01208302C00000C9
:1003C00001C0000089819A8140E250E060E070E065
:1003D0000E946E00882351F08B899C89FC018081EA
:1003E000282F21608B899C89FC01208389819A8137
:1003F0004FE150E060E070E00E946E00882351F011
:100400008B899C89FC018081282F28608B899C899D
:10041000FC01208389819A81AB81BC81892B8A2B45
:100420008B2B51F48B899C89FC018081282F2460BF
:100430008B899C89FC0120838B899C89FC018081AC
:10044000882F90E043E050E060E070E00E946E0092
:10045000182F8B899C89FC018081882F90E041E0D6
:1004600050E060E070E00E946E00181751F08B8938
:100470009C89FC018081282F20618B899C89FC014B
:10048000208389819A81AB81BC81BC01CD016496B6
:100490000FB6F894DEBF0FBECDBFDF91CF911F9195
:1004A0000F91FF90EF90DF90CF90BF90AF900895A5
:1004B000CF93DF9300D000D000D0CDB7DEB79A83C2
:1004C00089834B835C836D837E832B813C8181E0B8
:1004D00090E002C0880F991F2A95E2F79C0189815C
:1004E0009A818223932321E0892B09F420E0822F33
:1004F00026960FB6F894DEBF0FBECDBFDF91CF9129
:100500000895CF93DF93CDB7DEB71092010110921B
:100510000001109202011092030110920401109246
:100520000501109206011092070110920801109225
:10053000090110920A0110920C0110920B01109205
:100540000E0110920D0110920F01109210011092E5
:1005500011011092120110921301109214011092C5
:1005600015011092160110921701109218011092A5
:10057000190110921A010E94720A0E946A0C0E94CC
:10058000C80B0E94DE110E94B5090000DF91CF91D7
:100590000895AF92BF92CF92DF92EF92FF920F93A6
:1005A0001F93CF93DF9300D000D0CDB7DEB78091FB
:1005B000130190911401A0911501B09116018130A1
:1005C0009105A105B105E9F181309105A105B105BC
:1005D00030F00297A105B10509F4AAC0AFC6809119
:1005E0000001909101019C012F5F3F4F3093010169
:1005F000209300010E94E010A22EB32EC42ED52E0F
:10060000E62EF72E082F192FA0920201B0920301B7
:10061000C0920401D0920501E0920601F092070118
:10062000009308011093090181E090E0A0E0B0E0A0
:100630008093130190931401A0931501B0931601B8
:1006400080C6A0900201B0900301C0900401D09038
:100650000501E0900601F09007010091080110915A
:1006600009012A2D3B2D4C2D5D2D6E2D7F2D802FC8
:10067000912F00E30E940914A22EB32EC42ED52E72
:10068000E62EF72E082F192FC50190930C018093A9
:100690000B01A0900201B0900301C0900401D09022
:1006A0000501E0900601F09007010091080110910A
:1006B00009012A2D3B2D4C2D5D2D6E2D7F2D802F78
:1006C000912F00E20E940914A22EB32EC42ED52E23
:1006D000E62EF72E082F192FC50190930E01809357
:1006E0000D012091020130910301409104015091CC
:1006F00005016091060170910701809108019091B8
:100700000901DA01C90180930F0190931001A093B0
:100710001101B093120182E090E0A0E0B0E080937C
:10072000130190931401A0931501B093160109C60B
:1007300080910B0190910C01CC01A0E0B0E040E071
:1007400050E025E230E0841B950B2817390708F4A8
:10075000DAC58C5C9F4FFC010C94E81380910D016D
:1007600090910E019C01332780910F01909110010F
:10077000A0911101B0911201220F331F220F331FDC
:10078000255E3E4FF90180839183A283B383CBC55D
:1007900080910D0190910E019C01332780910F01F2
:1007A00090911001A0911101B0911201882F90E059
:1007B000880F991F880F991F855E9E4FFC018081CD
:1007C0009181A281B381220F331F220F331F255E37
:1007D0003E4FF90180839183A283B383A4C58091A6
:1007E0000D0190910E010297A1F561E070E080E0AB
:1007F00090E00E94370C9C01990F440B550B80919F
:100800000F0190911001A0911101B0911201882F58
:1008100090E0880F991F880F991F855E9E4FFC01FD
:1008200080819181A281B38182279327A427B52754
:1008300089839A83AB83BC8389819A81AB81BC8194
:100840009C01AD0161E070E080E090E00E94FC0B53
:100850006AC580910F0190911001A0911101B09192
:100860001201882F90E0880F991F880F991F855ECD
:100870009E4FFC01208131814281538180910D0185
:1008800090910E01CC01A0E0B0E0BC01CD010E942E
:10089000FC0B49C580910D0190910E018C0111272F
:1008A00080910F0190911001A0911101B09112015E
:1008B0009927AA27BB27BC01CD010E94370C092E1E
:1008C000000CAA0BBB0B9801220F331F220F331F02
:1008D000255E3E4FF90180839183A283B38323C5B4
:1008E00080910F0190911001A0911101B09112011E
:1008F000882F90E0880F991F880F991F855E9E4F63
:10090000FC01208131814281538180910D019091C0
:100910000E019927880F991F880F991F855E9E4F9A
:10092000FC0180819181A281B381BC01CD010E9433
:10093000FC0BF9C480910D0190910E018C011127DF
:1009400080910F0190911001A0911101B0911201BD
:10095000882F90E0880F991F880F991F855E9E4F02
:10096000FC0180819181A281B381BC01CD010E94F3
:10097000370C092E000CAA0BBB0B9801220F331F5A
:10098000220F331F255E3E4FF90180839183A2839E
:10099000B383C9C480910D0190910E019927880FEE
:1009A000991F880F991F855E9E4FFC01108211824E
:1009B00012821382B8C480910D0190910E019C01A6
:1009C000332780910D0190910E019927880F991F6F
:1009D000880F991F855E9E4FFC0180819181A281C5
:1009E000B381880F991FAA1FBB1F220F331F220F2D
:1009F000331F255E3E4FF90180839183A283B38329
:100A000092C480910D0190910E019C013327809139
:100A10000D0190910E019927880F991F880F991F3A
:100A2000855E9E4FFC0180819181A281B381B69544
:100A3000A79597958795220F331F220F331F255EA9
:100A40003E4FF90180839183A283B3836CC480916C
:100A50000D0190910E016C01DD2420910F01309168
:100A60001001409111015091120180910D0190915E
:100A70000E019927880F991F880F991F855E9E4F39
:100A8000FC0180819181A281B3810F2EFAE0EF2ECB
:100A9000F1E0FF2EF02D89019A01AC01BD018DE03E
:100AA00090E00E949700DC01CB019601220F331FDA
:100AB000220F331F255E3E4FF90180839183A2836D
:100AC000B38331C480910D0190910E016C01DD243E
:100AD00020910F01309110014091110150911201AC
:100AE00080910D0190910E019927880F991F880F11
:100AF000991F855E9E4FFC0180819181A281B38107
:100B00000F2EFAE0EF2EF1E0FF2EF02D89019A0171
:100B1000AC01BD018EE090E00E949700DC01CB01AA
:100B20009601220F331F220F331F255E3E4FF9011E
:100B300080839183A283B383F6C380910D0190914A
:100B40000E016C01DD2420910F01309110014091C4
:100B500011015091120180910D0190910E01992780
:100B6000880F991F880F991F855E9E4FFC01808119
:100B70009181A281B3810F2EFAE0EF2EF1E0FF2EDA
:100B8000F02D89019A01AC01BD018FE090E00E9437
:100B90009700DC01CB019601220F331F220F331F78
:100BA000255E3E4FF90180839183A283B383BBC34B
:100BB00080910D0190910E016C01DD2480910F0157
:100BC00090911001A0911101B0911201882F90E035
:100BD000880F991F880F991F855E9E4FFC01208109
:100BE00031814281538180910D0190910E019927AD
:100BF000880F991F880F991F855E9E4FFC01808189
:100C00009181A281B3810F2EFAE0EF2EF1E0FF2E49
:100C1000F02D89019A01AC01BD018DE090E00E94A8
:100C20009700DC01CB019601220F331F220F331FE7
:100C3000255E3E4FF90180839183A283B38373C302
:100C400080910D0190910E016C01DD2480910F01C6
:100C500090911001A0911101B0911201882F90E0A4
:100C6000880F991F880F991F855E9E4FFC01208178
:100C700031814281538180910D0190910E0199271C
:100C8000880F991F880F991F855E9E4FFC018081F8
:100C90009181A281B3810F2EFAE0EF2EF1E0FF2EB9
:100CA000F02D89019A01AC01BD018EE090E00E9417
:100CB0009700DC01CB019601220F331F220F331F57
:100CC000255E3E4FF90180839183A283B3832BC3BA
:100CD00080910D0190910E016C01DD2480910F0136
:100CE00090911001A0911101B0911201882F90E014
:100CF000880F991F880F991F855E9E4FFC012081E8
:100D000031814281538180910D0190910E0199278B
:100D1000880F991F880F991F855E9E4FFC01808167
:100D20009181A281B3810F2EFAE0EF2EF1E0FF2E28
:100D3000F02D89019A01AC01BD018FE090E00E9485
:100D40009700DC01CB019601220F331F220F331FC6
:100D5000255E3E4FF90180839183A283B383E3C272
:100D600080910D0190910E016C01DD2420910F0105
:100D700030911001409111015091120180910D01AB
:100D800090910E019927880F991F880F991F855EF2
:100D90009E4FFC0180819181A281B3810F2EFAE0E8
:100DA000EF2EF1E0FF2EF02D89019A01AC01BD017B
:100DB00082E190E00E949700DC01CB019601220FB6
:100DC000331F220F331F255E3E4FF901808391832D
:100DD000A283B383A8C280910D0190910E016C0192
:100DE000DD2420910F0130911001409111015091AB
:100DF000120180910D0190910E019927880F991F82
:100E0000880F991F855E9E4FFC0180819181A28190
:100E1000B3810F2EFAE0EF2EF1E0FF2EF02D8901C5
:100E20009A01AC01BD0183E190E00E949700DC01D2
:100E3000CB019601220F331F220F331F255E3E4F39
:100E4000F90180839183A283B3836DC280910D01E8
:100E500090910E016C01DD2480910F0190911001A1
:100E6000A0911101B0911201882F90E0880F991F75
:100E7000880F991F855E9E4FFC0120813181428140
:100E8000538180910D0190910E019927880F991F30
:100E9000880F991F855E9E4FFC0180819181A28100
:100EA000B3810F2EFAE0EF2EF1E0FF2EF02D890135
:100EB0009A01AC01BD0182E190E00E949700DC0143
:100EC000CB019601220F331F220F331F255E3E4FA9
:100ED000F90180839183A283B38325C280910D01A0
:100EE00090910E016C01DD2480910F019091100111
:100EF000A0911101B0911201882F90E0880F991FE5
:100F0000880F991F855E9E4FFC01208131814281AF
:100F1000538180910D0190910E019927880F991F9F
:100F2000880F991F855E9E4FFC0180819181A2816F
:100F3000B3810F2EFAE0EF2EF1E0FF2EF02D8901A4
:100F40009A01AC01BD0183E190E00E949700DC01B1
:100F5000CB019601220F331F220F331F255E3E4F18
:100F6000F90180839183A283B383DDC180910D0158
:100F700090910E016C01DD2480910D0190910E0184
:100F80009927880F991F880F991F855E9E4FFC0136
:100F900080819181A281B3810F2EFAE0EF2EF1E0E2
:100FA000FF2EF02D01E010E020E030E0AC01BD01AB
:100FB00082E190E00E949700DC01CB019601220FB4
:100FC000331F220F331F255E3E4FF901808391832B
:100FD000A283B383A8C180910D0190910E016C0191
:100FE000DD2480910D0190910E019927880F991FA2
:100FF000880F991F855E9E4FFC0180819181A2819F
:10100000B3810F2EFAE0EF2EF1E0FF2EF02D01E07C
:1010100010E020E030E0AC01BD0183E190E00E94EF
:101020009700DC01CB019601220F331F220F331FE3
:10103000255E3E4FF90180839183A283B38373C100
:1010400020910F0130911001409111015091120136
:1010500080910D0190910E019927880F991F880F9B
:10106000991F855E9E4FFC0180819181A281B38191
:101070000F2EFAE0EF2EF1E0FF2EF02D89019A01FC
:10108000AC01BD0183E190E00E9497004CC18091CA
:101090000F0190911001A0911101B0911201882FC0
:1010A00090E0880F991F880F991F855E9E4FFC0165
:1010B000208131814281538180910D0190910E01F7
:1010C0009927880F991F880F991F855E9E4FFC01F5
:1010D00080819181A281B3810F2EFAE0EF2EF1E0A1
:1010E000FF2EF02D89019A01AC01BD0183E190E052
:1010F0000E94970018C18091000190910101CC01DC
:10110000A0E0B0E0BC01CD010E940C1280910D0165
:1011100090910E01909301018093000104C10E94FF
:101120006012DC01CB019093010180930001FBC0B0
:101130000E94B30BF8C080910D0190910E01992788
:10114000880F991F880F991F855E9E4FFC01808133
:101150009181A281B381BC01CD010E940C12E3C038
:1011600080910D0190910E018C0111270E94601257
:10117000DC01CB019801220F331F220F331F255EA4
:101180003E4FF90180839183A283B383CCC08091C9
:101190000D0190910E019093010180930001C3C055
:1011A00080910A01882F90E042E050E060E070E01A
:1011B0000E945802882309F4ABC080910D019091E0
:1011C0000E019093010180930001A2C080910A0159
:1011D000882F90E042E050E060E070E00E9458020A
:1011E000982F81E08927882309F494C080910D010C
:1011F00090910E0190930101809300018BC080912A
:101200000A01882F90E044E050E060E070E00E9426
:101210005802982F81E08927882309F47DC08091A6
:101220000D0190910E01909301018093000174C013
:1012300080910A01882F90E044E050E060E070E087
:101240000E945802982F81E08927882309F466C0FC
:1012500080910A01882F90E042E050E060E070E069
:101260000E945802982F81E08927882309F456C0EC
:1012700080910D0190910E019093010180930001E6
:101280004DC080910A01882F90E044E050E060E07A
:1012900070E00E945802882361F480910A01882F2F
:1012A00090E042E050E060E070E00E945802882345
:1012B000B9F180910D0190910E01909301018093FD
:1012C00000012EC080910A01882F90E044E050E098
:1012D00060E070E00E945802882321F180910D01A6
:1012E00090910E0190930101809300011BC08091A9
:1012F0000A01806280930A0116C080910A018F7DE5
:1013000080930A0110C00E94B5090DC000000BC0F7
:10131000000009C0000007C0000005C0000003C0B5
:10132000000001C000000E94270B109213011092D0
:101330001401109215011092160103C00E94B50904
:1013400000000E94D5090E948C0A00000F900F90A7
:101350000F900F90DF91CF911F910F91FF90EF9021
:10136000DF90CF90BF90AF900895CF93DF93CDB72C
:10137000DEB784E290E0FC01108287E290E0FC019D
:1013800010828AE290E0FC01108285E290E0FC018C
:10139000108288E290E0FC0110828BE290E0FC0178
:1013A00010820000DF91CF910895CF93DF93CDB7E6
:1013B000DEB72C970FB6F894DEBF0FBECDBF60E04E
:1013C00070E0CB010E94370C092E000CAA0BBB0B5E
:1013D00089839A83AB83BC8361E070E080E090E016
:1013E0000E94370C092E000CAA0BBB0B8D839E8329
:1013F000AF83B88786E290E0FC018081882F90E07F
:10140000A0E0B0E0AC013327222783E290E0FC01AA
:101410008081882F90E0982F8827CC01A0E0B0E051
:10142000282B392B4A2B5B2B89E290E0FC01808131
:10143000882F90E0A0E0B0E0822B932BA42BB52B5B
:1014400089879A87AB87BC8789859A85AB85BC8558
:101450009C01AD0162E070E080E090E00E94FC0B36
:1014600024E230E089819A81AB81BC81892F9A2F57
:10147000AB2FBB27F901808327E230E089819A8175
:10148000AB81BC81CD01AA27BB27F90180838AE209
:1014900090E02981FC01208325E230E08D819E814E
:1014A000AF81B885892F9A2FAB2FBB27F901808395
:1014B00028E230E08D819E81AF81B885CD01AA27D9
:1014C000BB27F90180838BE290E02D81FC01208312
:1014D00000002C960FB6F894DEBF0FBECDBFDF9193
:1014E000CF910895CF93DF931F92CDB7DEB71982C6
:1014F0000BC010921B0110921C0110921D01109242
:101500001E0189818F5F89838981803290F3000079
:101510000F90DF91CF9108951F93CF93DF93CDB7B5
:10152000DEB72D970FB6F894DEBF0FBECDBF62E0D9
:1015300070E080E090E00E94370C092E000CAA0BAE
:10154000BB0B8A839B83AC83BD83198265C0898171
:10155000882F90E0A0E0B0E02A813B81AC01BD0182
:10156000C9010E945802182F8981882F90E0A0E0BD
:10157000B0E020911701309118014091190150916C
:101580001A01AC01BD01C9010E945802181709F4E3
:1015900040C065E070E080E090E00E94370C092ECA
:1015A000000CAA0BBB0B8E839F83A887B987898108
:1015B000882F90E0A0E0B0E02E813F81AC01BD011A
:1015C000C9010E945802882321F164E070E080E0A4
:1015D00090E00E94370C092E000CAA0BBB0B8A87E7
:1015E0009B87AC87BD878A859B85AC85BD858160DF
:1015F0008A879B87AC87BD878A859B85AC85BD859F
:101600009C01AD0164E070E080E090E00E94FC0B82
:1016100007C089818F5F89838981803208F497CFE1
:101620008A819B81AC81BD818093170190931801C1
:10163000A0931901B0931A0100002D960FB6F894EB
:10164000DEBF0FBECDBFDF91CF911F910895CF9325
:10165000DF93CDB7DEB728970FB6F894DEBF0FBE85
:10166000CDBF80910A01882F90E045E050E060E016
:1016700070E00E945802882309F448C064E070E0DA
:1016800080E090E00E94370C092E000CAA0BBB0BE7
:1016900089839A83AB83BC8363E070E080E090E051
:1016A0000E94370C092E000CAA0BBB0B8D839E8366
:1016B000AF83B88789819A8140E050E0BA010E94E7
:1016C0005802882319F18D819E8140E050E0BA01D3
:1016D0000E9458028823D1F089819A81AB81BC8114
:1016E0008E7F89839A83AB83BC8389819A81AB8106
:1016F000BC819C01AD0164E070E080E090E00E945C
:10170000FC0B82E090E00E94900B00000000289605
:101710000FB6F894DEBF0FBECDBFDF91CF91089515
:10172000CF93DF9300D0CDB7DEB79A8389838091C2
:10173000000190910101CC01A0E0B0E0BC01CD011D
:101740000E940C1289819A8190930101809300017B
:1017500080910A018F7D80930A0100000F900F9005
:10176000DF91CF910895CF93DF93CDB7DEB70E947D
:101770006012DC01CB019093010180930001809104
:101780000A01806280930A010000DF91CF910895E1
:10179000CF93DF9300D000D0CDB7DEB719821A8285
:1017A0001B821C8218C089819A81880F991F880F1B
:1017B000991F85569E4FFC0110821182128213825E
:1017C00089819A81AB81BC810196A11DB11D89835C
:1017D0009A83AB83BC8389819A81AB81BC81843637
:1017E0009105A105B105F8F200000F900F900F9040
:1017F0000F90DF91CF910895CF93DF93CDB7DEB7F0
:1018000028970FB6F894DEBF0FBECDBF69837A83E9
:101810008B839C832D833E834F83588789819A8154
:10182000AB81BC8184369105A105B105A8F48981FD
:101830009A81880F991F880F991F9C0125563E4F4A
:101840008D819E81AF81B885F90180839183A283C8
:10185000B38380E090E002C081E090E028960FB66C
:10186000F894DEBF0FBECDBFDF91CF910895CF9327
:10187000DF9300D000D0CDB7DEB769837A838B8346
:101880009C8389819A81AB81BC8184369105A105B5
:10189000B10570F489819A81880F991F880F991F6B
:1018A00085569E4FFC0180819181A281B38102C047
:1018B00080E090E00F900F900F900F90DF91CF910C
:1018C0000895CF93DF93CDB7DEB70E9481020E94C7
:1018D000C902FDCFAF92BF92CF92DF92EF92FF92FB
:1018E0000F931F93CF93DF93CDB7DEB7809143045F
:1018F000882309F059C420E030E0A90164E070E0D9
:101900008DE190E00E942C11A22EB32EC42ED52E74
:10191000E62EF72E082F192FA0922B03B0922C033E
:10192000C0922D03D0922E03E0922F03F092300349
:10193000009331031093320320E030E0A90160E00E
:1019400070E080E090E00E942C11A22EB32EC42EF5
:10195000D52EE62EF72E082F192FA0923303B09222
:101960003403C0923503D0923603E0923703F092ED
:1019700038030093390310933A0320E030E0A901C3
:1019800062E170E08DE190E00E942C11A22EB32E56
:10199000C42ED52EE62EF72E082F192FA0923B032A
:1019A000B0923C03C0923D03D0923E03E0923F03CD
:1019B000F0924003009341031093420320E030E093
:1019C000A90160E070E080E090E00E942C11A22E5E
:1019D000B32EC42ED52EE62EF72E082F192FA09247
:1019E0004303B0924403C0924503D0924603E09271
:1019F0004703F09248030093490310934A0320E001
:101A000030E0A90166E070E08AE190E00E942C11CC
:101A1000A22EB32EC42ED52EE62EF72E082F192F68
:101A2000A0924B03B0924C03C0924D03D0924E0350
:101A3000E0924F03F092500300935103109352032E
:101A400020E030E0A90165E070E08DE190E00E94C7
:101A50002C11A22EB32EC42ED52EE62EF72E082F33
:101A6000192FA0925303B0925403C0925503D09201
:101A70005603E0925703F0925803009359031093D2
:101A80005A0320E037E040E050E060E170E081E0A0
:101A900090E00E942C11A22EB32EC42ED52EE62E3D
:101AA000F72E082F192FA0925B03B0925C03C0920F
:101AB0005D03D0925E03E0925F03F09260030093B7
:101AC00061031093620320E130E040E050E060E009
:101AD00070E083E090E00E942C11A22EB32EC42E61
:101AE000D52EE62EF72E082F192FA0926303B09261
:101AF0006403C0926503D0926603E0926703F0929C
:101B000068030093690310936A0320E038E340E020
:101B100050E061E170E081E090E00E942C11A22E83
:101B2000B32EC42ED52EE62EF72E082F192FA092F5
:101B30006B03B0926C03C0926D03D0926E03E0927F
:101B40006F03F0927003009371031093720321E10D
:101B500030E040E050E061E070E083E090E00E941F
:101B60002C11A22EB32EC42ED52EE62EF72E082F22
:101B7000192FA0927303B0927403C0927503D09290
:101B80007603E0927703F092780300937903109341
:101B90007A0320E030E0A90160E070E084E290E0A8
:101BA0000E942C11A22EB32EC42ED52EE62EF72E77
:101BB000082F192FA0927B03B0927C03C0927D0363
:101BC000D0927E03E0927F03F09280030093810322
:101BD0001093820321E030E040E050E068E170E0E3
:101BE00081E090E00E942C11A22EB32EC42ED52E9F
:101BF000E62EF72E082F192FA0928303B0928403AC
:101C0000C0928503D0928603E0928703F092880306
:101C10000093890310938A0328E130E040E050E00C
:101C200063E070E083E090E00E942C11A22EB32EBE
:101C3000C42ED52EE62EF72E082F192FA0928B0337
:101C4000B0928C03C0928D03D0928E03E0928F03EA
:101C5000F0929003009391031093920321E130E0FE
:101C600040E050E065E070E083E090E00E942C11DD
:101C7000A22EB32EC42ED52EE62EF72E082F192F06
:101C8000A0929303B0929403C0929503D0929603CE
:101C9000E0929703F09298030093990310939A03AC
:101CA00020E031E040E050E060E170E081E090E071
:101CB0000E942C11A22EB32EC42ED52EE62EF72E66
:101CC000082F192FA0929B03B0929C03C0929D03F2
:101CD000D0929E03E0929F03F092A0030093A10391
:101CE0001093A20320E032E040E050E061E170E0B8
:101CF00081E090E00E942C11A22EB32EC42ED52E8E
:101D0000E62EF72E082F192FA092A303B092A4035A
:101D1000C092A503D092A603E092A703F092A80375
:101D20000093A9031093AA0320E034E040E050E0C0
:101D300062E170E081E090E00E942C11A22EB32EAF
:101D4000C42ED52EE62EF72E082F192FA092AB0306
:101D5000B092AC03C092AD03D092AE03E092AF0359
:101D6000F092B0030093B1031093B20320E030E08F
:101D7000A90160E070E08BE190E00E942C11A22E9E
:101D8000B32EC42ED52EE62EF72E082F192FA09293
:101D9000B303B092B403C092B503D092B603E092FD
:101DA000B703F092B8030093B9031093BA0322E08B
:101DB00030E040E050E068E170E084E090E00E94B4
:101DC0002C11A22EB32EC42ED52EE62EF72E082FC0
:101DD000192FA092BB03B092BC03C092BD03D09256
:101DE000BE03E092BF03F092C0030093C1031093BF
:101DF000C20320E038E040E050E068E170E08BE0B2
:101E000090E00E942C11A22EB32EC42ED52EE62EC9
:101E1000F72E082F192FA092C303B092C403C092CB
:101E2000C503D092C603E092C703F092C8030093A3
:101E3000C9031093CA0320E030E0A90167E170E014
:101E40008EE190E00E942C11A22EB32EC42ED52E2E
:101E5000E62EF72E082F192FA092CB03B092CC03B9
:101E6000C092CD03D092CE03E092CF03F092D00384
:101E70000093D1031093D20320E130E040E050E022
:101E800062E070E083E090E00E942C11A22EB32E5D
:101E9000C42ED52EE62EF72E082F192FA092D3038D
:101EA000B092D403C092D503D092D603E092D70368
:101EB000F092D8030093D9031093DA0320E030E0C6
:101EC000A90160E070E08CE190E00E942C11A22E4C
:101ED000B32EC42ED52EE62EF72E082F192FA09242
:101EE000DB03B092DC03C092DD03D092DE03E0920C
:101EF000DF03F092E0030093E1031093E20322E09A
:101F000030E040E050E068E170E084E090E00E9462
:101F10002C11A22EB32EC42ED52EE62EF72E082F6E
:101F2000192FA092E303B092E403C092E503D0928C
:101F3000E603E092E703F092E8030093E9031093CD
:101F4000EA0320E030E140E050E068E170E08BE03F
:101F500090E00E942C11A22EB32EC42ED52EE62E78
:101F6000F72E082F192FA092EB03B092EC03C0922A
:101F7000ED03D092EE03E092EF03F092F0030093B2
:101F8000F1031093F20320E030E0A9016CE170E06E
:101F90008EE190E00E942C11A22EB32EC42ED52EDD
:101FA000E62EF72E082F192FA092F303B092F40318
:101FB000C092F503D092F603E092F703F092F80393
:101FC0000093F9031093FA0321E130E040E050E080
:101FD00062E070E083E090E00E942C11A22EB32E0C
:101FE000C42ED52EE62EF72E082F192FA092FB0314
:101FF000B092FC03C092FD03D092FE03E092FF0377
:10200000F0920004009301041093020420E030E0F9
:10201000A90160E070E08CE190E00E942C11A22EFA
:10202000B32EC42ED52EE62EF72E082F192FA092F0
:102030000304B0920404C0920504D0920604E09216
:102040000704F09208040093090410930A0422E0A4
:1020500030E040E050E068E170E084E090E00E9411
:102060002C11A22EB32EC42ED52EE62EF72E082F1D
:10207000192FA0920B04B0920C04C0920D04D092C0
:102080000E04E0920F04F0921004009311041093D8
:10209000120420E030E240E050E068E170E08BE0C4
:1020A00090E00E942C11A22EB32EC42ED52EE62E27
:1020B000F72E082F192FA0921304B0921404C09287
:1020C0001504D0921604E0921704F09218040093BD
:1020D000190410931A0420E030E0A90160E270E0D6
:1020E0008EE190E00E942C11A22EB32EC42ED52E8C
:1020F000E62EF72E082F192FA0921B04B0921C0475
:10210000C0921D04D0921E04E0921F04F09220049D
:10211000009321041093220422E130E040E050E0DB
:1021200062E070E083E090E00E942C11A22EB32EBA
:10213000C42ED52EE62EF72E082F192FA092230499
:10214000B0922404C0922504D0922604E092270481
:10215000F09228040093290410932A0420E030E030
:10216000A90160E070E08CE190E00E942C11A22EA9
:10217000B32EC42ED52EE62EF72E082F192FA0929F
:102180002B04B0922C04C0922D04D0922E04E09225
:102190002F04F0923004009331041093320481E054
:1021A00080934304000001C00000DF91CF911F9194
:1021B0000F91FF90EF90DF90CF90BF90AF90089578
:1021C000AF92BF92CF92DF92EF92FF920F931F9345
:1021D000CF93DF9300D0CDB7DEB79A83898389810F
:1021E0009A818397A0F489819A81880F991F880F1B
:1021F000991F880F991FFC01E55DFC4F20813181FB
:1022000042815381648175818681978108C020E075
:1022100030E040E050E060E070E080E090E0A22E2E
:10222000B32EC42ED52EE62EF72E082F192F2A2DC9
:102230003B2D4C2D5D2D6E2D7F2D802F912F0F90DE
:102240000F90DF91CF911F910F91FF90EF90DF9052
:10225000CF90BF90AF9008952F923F924F925F9290
:102260006F927F928F929F92AF92BF92CF92DF92A6
:10227000EF92FF920F931F93CF93DF93CDB7DEB70B
:1022800068970FB6F894DEBF0FBECDBF9A838983DF
:102290007C836B832D833E834F83588789819A810A
:1022A0005C01C12CD12CE12CF12C87012A2D3B2D76
:1022B0004C2D5D2D6E2D7F2D802F912F00E30E94E0
:1022C000EE1329873A874B875C876D877E878F87D8
:1022D000988B8B819C815C01C12CD12CE12CF12C41
:1022E00087012A2D3B2D4C2D5D2D6E2D7F2D802FAE
:1022F000912F00E20E94EE13A22EB32EC42ED52EF3
:10230000E62EF72E082F192F29842A283A843B28F5
:102310004B844C285C845D286D846E287E847F28E5
:102320008F84802A9888912A8D819E81AF81B8857B
:102330009C01AD0160E070E0CB01E22DE22BE98B66
:10234000E32DE32BEA8BE42DE42BEB8BE52DE52B42
:10235000EC8BE62DE62BED8BE72DE72BEE8BE82DB6
:10236000E82BEF8BE92DE92BE88FA988BA88CB8879
:10237000DC88ED88FE880F89188D2A2D3B2D4C2D89
:102380005D2D6E2D7F2D802F912F68960FB6F894BE
:10239000DEBF0FBECDBFDF91CF911F910F91FF9098
:1023A000EF90DF90CF90BF90AF909F908F907F90F5
:1023B0006F905F904F903F902F900895CF93DF9351
:1023C00000D0CDB7DEB71A82198212C089819A81F6
:1023D000880F991F880F991F8C5B9B4FFC011082FF
:1023E00011821282138289819A8101969A8389834C
:1023F00089819A818436910548F383E690E0909331
:10240000D5058093D40581E08093D60500000F9018
:102410000F90DF91CF910895CF93DF9300D000D03C
:10242000CDB7DEB769837A838B839C838091D40593
:102430009091D505892B19F481E090E03AC0809104
:10244000D6058823B9F08091D4059091D505880FE1
:10245000991F880F991F9C012C5B3B4F89819A81A2
:10246000AB81BC81F90180839183A283B3831092F5
:10247000D6051DC08091D4059091D5050197909304
:10248000D5058093D4058091D4059091D505880F0A
:10249000991F880F991F9C012C5B3B4F89819A8162
:1024A000AB81BC81F90180839183A283B38380E0F7
:1024B00090E00F900F900F900F90DF91CF910895C3
:1024C000CF93DF93CDB7DEB78091D605882321F077
:1024D00080E090E0DC0130C08091D4059091D5057A
:1024E00083369105B8F48091D4059091D5059C016F
:1024F0002F5F3F4F3093D5052093D405880F991F48
:10250000880F991F8C5B9B4FFC0180819181A28178
:10251000B38112C081E08093D6058091D40590915B
:10252000D505880F991F880F991F8C5B9B4FFC0165
:1025300080819181A281B381BC01CD01DF91CF91D6
:1025400008955058BB27AA270E94B9120C94AE13C5
:102550000E94A01338F00E94A71320F039F49F3F87
:1025600019F426F40C948D130EF4E095E7FB0C940B
:102570008713E92F0E94BF1358F3BA176207730736
:102580008407950720F079F4A6F50C94E1130EF476
:10259000E0950B2EBA2FA02D0B01B90190010C0173
:1025A000CA01A0011124FF27591B99F0593F50F48B
:1025B000503E68F11A16F040A22F232F342F4427E3
:1025C000585FF3CF469537952795A795F0405395DB
:1025D000C9F77EF41F16BA0B620B730B840BBAF0AB
:1025E0009150A1F0FF0FBB1F661F771F881FC2F716
:1025F0000EC0BA0F621F731F841F48F4879577952A
:102600006795B795F7959E3F08F0B0CF9395880FE3
:1026100008F09927EE0F979587950895BEE304D0AB
:1026200008F490E80895BFE322273327A9010E9408
:10263000C71360F19F5748F1B91740F1BFE3B91BC9
:102640009927B8503AF4660F771F881F991FB395E2
:10265000D2F316C0B8504AF0232F342F452F562FEF
:10266000672F782F8827B850BAF7B85F49F086955A
:10267000779567955795479537952795BA95B9F703
:1026800016F40E94901388940895889460E070E096
:10269000CB010895E89409C097FB3EF4909580958E
:1026A000709561957F4F8F4F9F4F9923A9F0F92F18
:1026B00096E9BB279395F695879577956795B79596
:1026C000F111F8CFFAF4BB0F11F460FF1BC06F5F7C
:1026D0007F4F8F4F9F4F16C0882311F096E911C08E
:1026E000772321F09EE8872F762F05C0662371F0AF
:1026F00096E8862F70E060E02AF09A95660F771FC3
:10270000881FDAF7880F9695879597F9089597F9B6
:102710009F6780E870E060E008959FEF80EC089587
:102720009095809570956095509540953095219540
:102730003F4F4F4F5F4F6F4F7F4F8F4F9F4F0895CA
:1027400000240A9416161706180609060895002490
:102750000A9412161306140605060895092E03940A
:10276000000C11F4882352F0BB0F40F4BF2B11F47E
:1027700060FF04C06F5F7F4F8F4F9F4F089557FDDD
:102780009058440F551F59F05F3F71F04795880FDF
:1027900097FB991F61F09F3F79F087950895121676
:1027A00013061406551FF2CF4695F1DF08C0161622
:1027B00017061806991FF1CF8695710561050894D3
:1027C0000895E894BB2766277727CB0197F90895EA
:1027D000EE0FFF1F0590F491E02D09940F93083040
:1027E00090F0982F872F762F652F542F432F322F5D
:1027F00022270850F4CF220F331F441F551F661F96
:10280000771F881F991F0A95B2F70F91089597FBBC
:1028100010F8169400080F93083098F00850232FF2
:10282000342F452F562F672F782F892F902DF4CFD7
:10283000059497958795779567955795479537951B
:0E28400027950A95AAF70F910895F894FFCFF7
:00000001FF
